{
  "_format": "hh-sol-artifact-1",
  "contractName": "Reputation",
  "sourceName": "contracts/model1.sol",
  "abi": [
    {
      "inputs": [],
      "stateMutability": "nonpayable",
      "type": "constructor"
    },
    {
      "inputs": [
        {
          "internalType": "string",
          "name": "_url",
          "type": "string"
        }
      ],
      "name": "addURL",
      "outputs": [],
      "stateMutability": "nonpayable",
      "type": "function"
    },
    {
      "inputs": [],
      "name": "getURLList",
      "outputs": [
        {
          "components": [
            {
              "internalType": "string",
              "name": "name",
              "type": "string"
            },
            {
              "internalType": "int256",
              "name": "reputation",
              "type": "int256"
            },
            {
              "internalType": "uint256",
              "name": "votes",
              "type": "uint256"
            }
          ],
          "internalType": "struct Reputation.URL[]",
          "name": "",
          "type": "tuple[]"
        }
      ],
      "stateMutability": "view",
      "type": "function"
    },
    {
      "inputs": [],
      "name": "getVotersList",
      "outputs": [
        {
          "components": [
            {
              "internalType": "address",
              "name": "addr",
              "type": "address"
            },
            {
              "internalType": "string[]",
              "name": "urlsVoted",
              "type": "string[]"
            },
            {
              "internalType": "int256[]",
              "name": "votes",
              "type": "int256[]"
            }
          ],
          "internalType": "struct Reputation.Voter[]",
          "name": "",
          "type": "tuple[]"
        }
      ],
      "stateMutability": "view",
      "type": "function"
    },
    {
      "inputs": [
        {
          "internalType": "string",
          "name": "_url",
          "type": "string"
        },
        {
          "internalType": "bool",
          "name": "_vote",
          "type": "bool"
        }
      ],
      "name": "vote",
      "outputs": [],
      "stateMutability": "nonpayable",
      "type": "function"
    }
  ],
  "bytecode": "0x60806040523480156200001157600080fd5b506200005d6040518060400160405280602081526020017f57656c636f6d6520746f2055524c2072657075746174696f6e2073797374656d8152506200006360201b620005db1760201c565b620001f7565b62000103816040516024016200007a919062000170565b6040516020818303038152906040527f41304fac000000000000000000000000000000000000000000000000000000007bffffffffffffffffffffffffffffffffffffffffffffffffffffffff19166020820180517bffffffffffffffffffffffffffffffffffffffffffffffffffffffff83818316178352505050506200010660201b60201c565b50565b60008151905060006a636f6e736f6c652e6c6f679050602083016000808483855afa5050505050565b60006200013c8262000194565b6200014881856200019f565b93506200015a818560208601620001b0565b6200016581620001e6565b840191505092915050565b600060208201905081810360008301526200018c81846200012f565b905092915050565b600081519050919050565b600082825260208201905092915050565b60005b83811015620001d0578082015181840152602081019050620001b3565b83811115620001e0576000848401525b50505050565b6000601f19601f8301169050919050565b61183380620002076000396000f3fe608060405234801561001057600080fd5b506004361061004c5760003560e01c806327d3410c14610051578063446a5f721461006d578063bc86f3851461008b578063d103449c146100a9575b600080fd5b61006b60048036038101906100669190610ede565b6100c5565b005b610075610227565b6040516100829190611482565b60405180910390f35b61009361033c565b6040516100a091906114a4565b60405180910390f35b6100c360048036038101906100be9190610e9d565b610532565b005b60006100d083610674565b905060006100dd84610749565b9050600082815481106100ec57fe5b906000526020600020906003020160020160008154809291906001019190505550821561018c576000828154811061012057fe5b9060005260206000209060030201600101600081548092919060010191905055506001818154811061014e57fe5b906000526020600020906003020160020160019080600181540180825580915050600190039060005260206000200160009091909190915055610221565b6000828154811061019957fe5b90600052602060002090600302016001016000815480929190600190039190505550600181815481106101c857fe5b90600052602060002090600302016002017fffffffffffffffffffffffffffffffffffffffffffffffffffffffffffffffff90806001815401808255809150506001900390600052602060002001600090919091909150555b50505050565b60606000805480602002602001604051908101604052809291908181526020016000905b828210156103335783829060005260206000209060030201604051806060016040529081600082018054600181600116156101000203166002900480601f0160208091040260200160405190810160405280929190818152602001828054600181600116156101000203166002900480156103075780601f106102dc57610100808354040283529160200191610307565b820191906000526020600020905b8154815290600101906020018083116102ea57829003601f168201915b50505050508152602001600182015481526020016002820154815250508152602001906001019061024b565b50505050905090565b60606001805480602002602001604051908101604052809291908181526020016000905b8282101561052957838290600052602060002090600302016040518060600160405290816000820160009054906101000a900473ffffffffffffffffffffffffffffffffffffffff1673ffffffffffffffffffffffffffffffffffffffff1673ffffffffffffffffffffffffffffffffffffffff16815260200160018201805480602002602001604051908101604052809291908181526020016000905b828210156104ba578382906000526020600020018054600181600116156101000203166002900480601f0160208091040260200160405190810160405280929190818152602001828054600181600116156101000203166002900480156104a65780601f1061047b576101008083540402835291602001916104a6565b820191906000526020600020905b81548152906001019060200180831161048957829003601f168201915b5050505050815260200190600101906103fe565b5050505081526020016002820180548060200260200160405190810160405280929190818152602001828054801561051157602002820191906000526020600020905b8154815260200190600101908083116104fd575b50505050508152505081526020019060010190610360565b50505050905090565b61053b81610a98565b600060405180606001604052808381526020016000815260200160008152509080600181540180825580915050600190039060005260206000209060030201600090919091909150600082015181600001908051906020019061059f929190610c2a565b50602082015181600101556040820151816002015550506105d86040518060600160405280602e81526020016117d0602e913982610b65565b50565b610671816040516024016105ef91906114c6565b6040516020818303038152906040527f41304fac000000000000000000000000000000000000000000000000000000007bffffffffffffffffffffffffffffffffffffffffffffffffffffffff19166020820180517bffffffffffffffffffffffffffffffffffffffffffffffffffffffff8381831617835250505050610c01565b50565b600080600090505b8260405160200161068d9190611454565b60405160208183030381529060405280519060200120600082815481106106b057fe5b90600052602060002090600302016000016040516020016106d1919061146b565b6040516020818303038152906040528051906020012014610740578080600101915050600080549050811061073b576040517f08c379a00000000000000000000000000000000000000000000000000000000081526004016107329061153f565b60405180910390fd5b61067c565b80915050919050565b600080600090505b600180549050811015610939573373ffffffffffffffffffffffffffffffffffffffff166001828154811061078257fe5b906000526020600020906003020160000160009054906101000a900473ffffffffffffffffffffffffffffffffffffffff1673ffffffffffffffffffffffffffffffffffffffff16141561092c5760005b600182815481106107e057fe5b9060005260206000209060030201600101805490508110156108ca578360405160200161080d9190611454565b604051602081830303815290604052805190602001206001838154811061083057fe5b9060005260206000209060030201600101828154811061084c57fe5b90600052602060002001604051602001610866919061146b565b6040516020818303038152906040528051906020012014156108bd576040517f08c379a00000000000000000000000000000000000000000000000000000000081526004016108b49061155f565b60405180910390fd5b80806001019150506107d3565b50600181815481106108d857fe5b906000526020600020906003020160010183908060018154018082558091505060019003906000526020600020016000909190919091509080519060200190610922929190610c2a565b5080915050610a93565b8080600101915050610751565b50610942610caa565b33816000019073ffffffffffffffffffffffffffffffffffffffff16908173ffffffffffffffffffffffffffffffffffffffff1681525050600181908060018154018082558091505060019003906000526020600020906003020160009091909190915060008201518160000160006101000a81548173ffffffffffffffffffffffffffffffffffffffff021916908373ffffffffffffffffffffffffffffffffffffffff1602179055506020820151816001019080519060200190610a09929190610ce1565b506040820151816002019080519060200190610a26929190610d41565b50505060018080805490500381548110610a3c57fe5b906000526020600020906003020160010183908060018154018082558091505060019003906000526020600020016000909190919091509080519060200190610a86929190610c2a565b5060018080549050039150505b919050565b60005b600080549050811015610b615781604051602001610ab99190611454565b6040516020818303038152906040528051906020012060008281548110610adc57fe5b9060005260206000209060030201600001604051602001610afd919061146b565b604051602081830303815290604052805190602001201415610b54576040517f08c379a0000000000000000000000000000000000000000000000000000000008152600401610b4b9061151f565b60405180910390fd5b8080600101915050610a9b565b5050565b610bfd8282604051602401610b7b9291906114e8565b6040516020818303038152906040527f4b5c4277000000000000000000000000000000000000000000000000000000007bffffffffffffffffffffffffffffffffffffffffffffffffffffffff19166020820180517bffffffffffffffffffffffffffffffffffffffffffffffffffffffff8381831617835250505050610c01565b5050565b60008151905060006a636f6e736f6c652e6c6f679050602083016000808483855afa5050505050565b828054600181600116156101000203166002900490600052602060002090601f016020900481019282601f10610c6b57805160ff1916838001178555610c99565b82800160010185558215610c99579182015b82811115610c98578251825591602001919060010190610c7d565b5b509050610ca69190610d8e565b5090565b6040518060600160405280600073ffffffffffffffffffffffffffffffffffffffff16815260200160608152602001606081525090565b828054828255906000526020600020908101928215610d30579160200282015b82811115610d2f578251829080519060200190610d1f929190610c2a565b5091602001919060010190610d01565b5b509050610d3d9190610dab565b5090565b828054828255906000526020600020908101928215610d7d579160200282015b82811115610d7c578251825591602001919060010190610d61565b5b509050610d8a9190610dcf565b5090565b5b80821115610da7576000816000905550600101610d8f565b5090565b5b80821115610dcb5760008181610dc29190610dec565b50600101610dac565b5090565b5b80821115610de8576000816000905550600101610dd0565b5090565b50805460018160011615610100020316600290046000825580601f10610e125750610e31565b601f016020900490600052602060002090810190610e309190610d8e565b5b50565b600081359050610e43816117b8565b92915050565b600082601f830112610e5a57600080fd5b8135610e6d610e68826115b0565b61157f565b91508082526020830160208301858383011115610e8957600080fd5b610e94838284611763565b50505092915050565b600060208284031215610eaf57600080fd5b600082013567ffffffffffffffff811115610ec957600080fd5b610ed584828501610e49565b91505092915050565b60008060408385031215610ef157600080fd5b600083013567ffffffffffffffff811115610f0b57600080fd5b610f1785828601610e49565b9250506020610f2885828601610e34565b9150509250929050565b6000610f3e8383611152565b60208301905092915050565b6000610f568383611161565b905092915050565b6000610f6a838361139e565b905092915050565b6000610f7e83836113ee565b905092915050565b610f8f81611711565b82525050565b6000610fa082611635565b610faa81856116a0565b9350610fb5836115e0565b8060005b83811015610fe6578151610fcd8882610f32565b9750610fd88361166c565b925050600181019050610fb9565b5085935050505092915050565b6000610ffe82611640565b61100881856116b1565b93508360208202850161101a856115f0565b8060005b8581101561105657848403895281516110378582610f4a565b945061104283611679565b925060208a0199505060018101905061101e565b50829750879550505050505092915050565b60006110738261164b565b61107d81856116c2565b93508360208202850161108f85611600565b8060005b858110156110cb57848403895281516110ac8582610f5e565b94506110b783611686565b925060208a01995050600181019050611093565b50829750879550505050505092915050565b60006110e882611656565b6110f281856116d3565b93508360208202850161110485611610565b8060005b8581101561114057848403895281516111218582610f72565b945061112c83611693565b925060208a01995050600181019050611108565b50829750879550505050505092915050565b61115b8161172f565b82525050565b600061116c82611661565b61117681856116e4565b9350611186818560208601611772565b61118f816117a7565b840191505092915050565b60006111a582611661565b6111af81856116f5565b93506111bf818560208601611772565b6111c8816117a7565b840191505092915050565b60006111de82611661565b6111e88185611706565b93506111f8818560208601611772565b80840191505092915050565b60008154600181166000811461122157600181146112465761128a565b607f60028304166112328187611706565b955060ff198316865280860193505061128a565b600282046112548187611706565b955061125f85611620565b60005b8281101561128157815481890152600182019150602081019050611262565b82880195505050505b505092915050565b600061129f6021836116f5565b91507f5468652055524c2065786973747320616c726561647920696e206f757220646260008301527f2e000000000000000000000000000000000000000000000000000000000000006020830152604082019050919050565b60006113056022836116f5565b91507f5468652055524c20646f6573206e6f742065786973747320696e206f7572206460008301527f622e0000000000000000000000000000000000000000000000000000000000006020830152604082019050919050565b600061136b601f836116f5565b91507f596f75206861766520616c726561647920766f74656420746869732055524c006000830152602082019050919050565b600060608301600083015184820360008601526113bb8282611161565b91505060208301516113d06020860182611152565b5060408301516113e36040860182611445565b508091505092915050565b60006060830160008301516114066000860182610f86565b506020830151848203602086015261141e8282610ff3565b915050604083015184820360408601526114388282610f95565b9150508091505092915050565b61144e81611759565b82525050565b600061146082846111d3565b915081905092915050565b60006114778284611204565b915081905092915050565b6000602082019050818103600083015261149c8184611068565b905092915050565b600060208201905081810360008301526114be81846110dd565b905092915050565b600060208201905081810360008301526114e0818461119a565b905092915050565b60006040820190508181036000830152611502818561119a565b90508181036020830152611516818461119a565b90509392505050565b6000602082019050818103600083015261153881611292565b9050919050565b60006020820190508181036000830152611558816112f8565b9050919050565b600060208201905081810360008301526115788161135e565b9050919050565b6000604051905081810181811067ffffffffffffffff821117156115a6576115a56117a5565b5b8060405250919050565b600067ffffffffffffffff8211156115cb576115ca6117a5565b5b601f19601f8301169050602081019050919050565b6000819050602082019050919050565b6000819050602082019050919050565b6000819050602082019050919050565b6000819050602082019050919050565b60008190508160005260206000209050919050565b600081519050919050565b600081519050919050565b600081519050919050565b600081519050919050565b600081519050919050565b6000602082019050919050565b6000602082019050919050565b6000602082019050919050565b6000602082019050919050565b600082825260208201905092915050565b600082825260208201905092915050565b600082825260208201905092915050565b600082825260208201905092915050565b600082825260208201905092915050565b600082825260208201905092915050565b600081905092915050565b600061171c82611739565b9050919050565b60008115159050919050565b6000819050919050565b600073ffffffffffffffffffffffffffffffffffffffff82169050919050565b6000819050919050565b82818337600083830152505050565b60005b83811015611790578082015181840152602081019050611775565b8381111561179f576000848401525b50505050565bfe5b6000601f19601f8301169050919050565b6117c181611723565b81146117cc57600080fd5b5056fe41646465642055524c202725732720776974682064656661756c74206e65757472616c2072657075746174696f6ea264697066735822122079c63e36a7ffc8175b4149be21b06d824b98ebc6093d9037276432f7d3c21adc64736f6c63430007030033",
  "linkReferences": {},
  "deployedLinkReferences": {}
}