{
  "_format": "hh-sol-artifact-1",
  "contractName": "DomainManager",
  "sourceName": "contracts/model2.sol",
  "abi": [
    {
      "inputs": [],
      "stateMutability": "nonpayable",
      "type": "constructor"
    },
    {
      "inputs": [
        {
          "internalType": "string",
          "name": "_domain",
          "type": "string"
        }
      ],
      "name": "createDomain",
      "outputs": [],
      "stateMutability": "nonpayable",
      "type": "function"
    },
    {
      "inputs": [
        {
          "internalType": "string",
          "name": "_domain",
          "type": "string"
        }
      ],
      "name": "getDomain",
      "outputs": [
        {
          "internalType": "contract Domain",
          "name": "",
          "type": "address"
        }
      ],
      "stateMutability": "view",
      "type": "function"
    },
    {
      "inputs": [
        {
          "internalType": "string",
          "name": "_domain",
          "type": "string"
        }
      ],
      "name": "getDomainBalance",
      "outputs": [
        {
          "internalType": "uint256",
          "name": "",
          "type": "uint256"
        }
      ],
      "stateMutability": "view",
      "type": "function"
    },
    {
      "inputs": [],
      "name": "getDomainList",
      "outputs": [
        {
          "internalType": "string[]",
          "name": "",
          "type": "string[]"
        }
      ],
      "stateMutability": "view",
      "type": "function"
    },
    {
      "inputs": [
        {
          "internalType": "string",
          "name": "_domain",
          "type": "string"
        }
      ],
      "name": "getDomainOwner",
      "outputs": [
        {
          "internalType": "address",
          "name": "",
          "type": "address"
        }
      ],
      "stateMutability": "view",
      "type": "function"
    },
    {
      "inputs": [
        {
          "internalType": "string",
          "name": "_domain",
          "type": "string"
        }
      ],
      "name": "getDomainParticipation",
      "outputs": [
        {
          "internalType": "uint256",
          "name": "",
          "type": "uint256"
        }
      ],
      "stateMutability": "view",
      "type": "function"
    },
    {
      "inputs": [
        {
          "internalType": "string",
          "name": "_domain",
          "type": "string"
        }
      ],
      "name": "getDomainReputation",
      "outputs": [
        {
          "internalType": "int256",
          "name": "",
          "type": "int256"
        }
      ],
      "stateMutability": "view",
      "type": "function"
    },
    {
      "inputs": [],
      "name": "getVotersList",
      "outputs": [
        {
          "components": [
            {
              "internalType": "address",
              "name": "addr",
              "type": "address"
            },
            {
              "internalType": "string[]",
              "name": "urlsVoted",
              "type": "string[]"
            },
            {
              "internalType": "int256[]",
              "name": "votes",
              "type": "int256[]"
            }
          ],
          "internalType": "struct DomainManager.Voter[]",
          "name": "",
          "type": "tuple[]"
        }
      ],
      "stateMutability": "view",
      "type": "function"
    },
    {
      "inputs": [
        {
          "internalType": "string",
          "name": "_domain",
          "type": "string"
        }
      ],
      "name": "sendMoney",
      "outputs": [],
      "stateMutability": "payable",
      "type": "function"
    },
    {
      "inputs": [
        {
          "internalType": "string",
          "name": "_domain",
          "type": "string"
        },
        {
          "internalType": "bool",
          "name": "_vote",
          "type": "bool"
        }
      ],
      "name": "vote",
      "outputs": [],
      "stateMutability": "nonpayable",
      "type": "function"
    }
  ],
  "bytecode": "0x60806040523480156200001157600080fd5b506200004160405180606001604052806029815260200162003339602991396200004760201b620015a71760201c565b620001db565b620000e7816040516024016200005e919062000154565b6040516020818303038152906040527f41304fac000000000000000000000000000000000000000000000000000000007bffffffffffffffffffffffffffffffffffffffffffffffffffffffff19166020820180517bffffffffffffffffffffffffffffffffffffffffffffffffffffffff8381831617835250505050620000ea60201b60201c565b50565b60008151905060006a636f6e736f6c652e6c6f679050602083016000808483855afa5050505050565b6000620001208262000178565b6200012c818562000183565b93506200013e81856020860162000194565b6200014981620001ca565b840191505092915050565b6000602082019050818103600083015262000170818462000113565b905092915050565b600081519050919050565b600082825260208201905092915050565b60005b83811015620001b457808201518184015260208101905062000197565b83811115620001c4576000848401525b50505050565b6000601f19601f8301169050919050565b61314e80620001eb6000396000f3fe6080604052600436106200009e5760003560e01c8063bc86f3851162000061578063bc86f38514620001a9578063bcef0f5a14620001d9578063de2309a2146200021d578063ecdd04da146200024b578063f8b26d8f146200028f576200009e565b8063050dbadf14620000a3578063201f711814620000c35780632597011514620000f357806327d3410c14620001375780639724f9331462000165575b600080fd5b620000c16004803603810190620000bb919062001dc0565b620002d3565b005b348015620000d057600080fd5b50620000db6200059b565b604051620000ea91906200260d565b60405180910390f35b3480156200010057600080fd5b506200011f600480360381019062000119919062001dc0565b6200068a565b6040516200012e9190620025bc565b60405180910390f35b3480156200014457600080fd5b506200016360048036038101906200015d919062001e05565b6200082b565b005b3480156200017257600080fd5b506200019160048036038101906200018b919062001dc0565b62000bb3565b604051620001a091906200268f565b60405180910390f35b348015620001b657600080fd5b50620001c162000d54565b604051620001d0919062002631565b60405180910390f35b348015620001e657600080fd5b50620002056004803603810190620001ff919062001dc0565b62000f54565b604051620002149190620027d0565b60405180910390f35b3480156200022a57600080fd5b5062000249600480360381019062000243919062001dc0565b620010f5565b005b3480156200025857600080fd5b5062000277600480360381019062000271919062001dc0565b620012e6565b60405162000286919062002672565b60405180910390f35b3480156200029c57600080fd5b50620002bb6004803603810190620002b5919062001dc0565b62001406565b604051620002ca9190620027d0565b60405180910390f35b6000604051602001620002e7919062002550565b604051602081830303815290604052805190602001206000826040516200030f91906200258a565b908152602001604051809103902060009054906101000a900473ffffffffffffffffffffffffffffffffffffffff166040516020016200035091906200256d565b604051602081830303815290604052805190602001201415620003aa576040517f08c379a0000000000000000000000000000000000000000000000000000000008152600401620003a190620027ae565b60405180910390fd5b3373ffffffffffffffffffffffffffffffffffffffff16600082604051620003d391906200258a565b908152602001604051809103902060009054906101000a900473ffffffffffffffffffffffffffffffffffffffff1673ffffffffffffffffffffffffffffffffffffffff1663893d20e86040518163ffffffff1660e01b815260040160206040518083038186803b1580156200044857600080fd5b505afa1580156200045d573d6000803e3d6000fd5b505050506040513d601f19601f8201168201806040525081019062000483919062001d68565b73ffffffffffffffffffffffffffffffffffffffff1614620004dc576040517f08c379a0000000000000000000000000000000000000000000000000000000008152600401620004d3906200276a565b60405180910390fd5b60008082604051620004ef91906200258a565b908152602001604051809103902060009054906101000a900473ffffffffffffffffffffffffffffffffffffffff1673ffffffffffffffffffffffffffffffffffffffff166108fc349081150290604051600060405180830381858888f1935050505090508062000597576040517f08c379a00000000000000000000000000000000000000000000000000000000081526004016200058e9062002748565b60405180910390fd5b5050565b60606002805480602002602001604051908101604052809291908181526020016000905b8282101562000681578382906000526020600020018054600181600116156101000203166002900480601f0160208091040260200160405190810160405280929190818152602001828054600181600116156101000203166002900480156200066c5780601f1062000640576101008083540402835291602001916200066c565b820191906000526020600020905b8154815290600101906020018083116200064e57829003601f168201915b505050505081526020019060010190620005bf565b50505050905090565b6000806040516020016200069f919062002550565b60405160208183030381529060405280519060200120600083604051620006c791906200258a565b908152602001604051809103902060009054906101000a900473ffffffffffffffffffffffffffffffffffffffff166040516020016200070891906200256d565b60405160208183030381529060405280519060200120141562000762576040517f08c379a00000000000000000000000000000000000000000000000000000000081526004016200075990620027ae565b60405180910390fd5b6000826040516200077491906200258a565b908152602001604051809103902060009054906101000a900473ffffffffffffffffffffffffffffffffffffffff1673ffffffffffffffffffffffffffffffffffffffff1663893d20e86040518163ffffffff1660e01b815260040160206040518083038186803b158015620007e957600080fd5b505afa158015620007fe573d6000803e3d6000fd5b505050506040513d601f19601f8201168201806040525081019062000824919062001d68565b9050919050565b60006040516020016200083f919062002550565b604051602081830303815290604052805190602001206000836040516200086791906200258a565b908152602001604051809103902060009054906101000a900473ffffffffffffffffffffffffffffffffffffffff16604051602001620008a891906200256d565b60405160208183030381529060405280519060200120141562000902576040517f08c379a0000000000000000000000000000000000000000000000000000000008152600401620008f990620027ae565b60405180910390fd5b3373ffffffffffffffffffffffffffffffffffffffff166000836040516200092b91906200258a565b908152602001604051809103902060009054906101000a900473ffffffffffffffffffffffffffffffffffffffff1673ffffffffffffffffffffffffffffffffffffffff1663893d20e86040518163ffffffff1660e01b815260040160206040518083038186803b158015620009a057600080fd5b505afa158015620009b5573d6000803e3d6000fd5b505050506040513d601f19601f82011682018060405250810190620009db919062001d68565b73ffffffffffffffffffffffffffffffffffffffff16141562000a35576040517f08c379a000000000000000000000000000000000000000000000000000000000815260040162000a2c9062002726565b60405180910390fd5b600062000a428362001644565b9050811562000a98576001818154811062000a5957fe5b90600052602060002090600302016002016001908060018154018082558091505060019003906000526020600020016000909190919091505562000aff565b6001818154811062000aa657fe5b90600052602060002090600302016002017fffffffffffffffffffffffffffffffffffffffffffffffffffffffffffffffff90806001815401808255809150506001900390600052602060002001600090919091909150555b60008360405162000b1191906200258a565b908152602001604051809103902060009054906101000a900473ffffffffffffffffffffffffffffffffffffffff1673ffffffffffffffffffffffffffffffffffffffff16634b9f5c98836040518263ffffffff1660e01b815260040162000b7a919062002655565b600060405180830381600087803b15801562000b9557600080fd5b505af115801562000baa573d6000803e3d6000fd5b50505050505050565b60008060405160200162000bc8919062002550565b6040516020818303038152906040528051906020012060008360405162000bf091906200258a565b908152602001604051809103902060009054906101000a900473ffffffffffffffffffffffffffffffffffffffff1660405160200162000c3191906200256d565b60405160208183030381529060405280519060200120141562000c8b576040517f08c379a000000000000000000000000000000000000000000000000000000000815260040162000c8290620027ae565b60405180910390fd5b60008260405162000c9d91906200258a565b908152602001604051809103902060009054906101000a900473ffffffffffffffffffffffffffffffffffffffff1673ffffffffffffffffffffffffffffffffffffffff1663ffe6a18e6040518163ffffffff1660e01b815260040160206040518083038186803b15801562000d1257600080fd5b505afa15801562000d27573d6000803e3d6000fd5b505050506040513d601f19601f8201168201806040525081019062000d4d919062001d94565b9050919050565b60606001805480602002602001604051908101604052809291908181526020016000905b8282101562000f4b57838290600052602060002090600302016040518060600160405290816000820160009054906101000a900473ffffffffffffffffffffffffffffffffffffffff1673ffffffffffffffffffffffffffffffffffffffff1673ffffffffffffffffffffffffffffffffffffffff16815260200160018201805480602002602001604051908101604052809291908181526020016000905b8282101562000ed9578382906000526020600020018054600181600116156101000203166002900480601f01602080910402602001604051908101604052809291908181526020018280546001816001161561010002031660029004801562000ec45780601f1062000e985761010080835404028352916020019162000ec4565b820191906000526020600020905b81548152906001019060200180831162000ea657829003601f168201915b50505050508152602001906001019062000e17565b5050505081526020016002820180548060200260200160405190810160405280929190818152602001828054801562000f3257602002820191906000526020600020905b81548152602001906001019080831162000f1d575b5050505050815250508152602001906001019062000d78565b50505050905090565b60008060405160200162000f69919062002550565b6040516020818303038152906040528051906020012060008360405162000f9191906200258a565b908152602001604051809103902060009054906101000a900473ffffffffffffffffffffffffffffffffffffffff1660405160200162000fd291906200256d565b6040516020818303038152906040528051906020012014156200102c576040517f08c379a00000000000000000000000000000000000000000000000000000000081526004016200102390620027ae565b60405180910390fd5b6000826040516200103e91906200258a565b908152602001604051809103902060009054906101000a900473ffffffffffffffffffffffffffffffffffffffff1673ffffffffffffffffffffffffffffffffffffffff166312065fe06040518163ffffffff1660e01b815260040160206040518083038186803b158015620010b357600080fd5b505afa158015620010c8573d6000803e3d6000fd5b505050506040513d601f19601f82011682018060405250810190620010ee919062001e5f565b9050919050565b600060405160200162001109919062002550565b604051602081830303815290604052805190602001206000826040516200113191906200258a565b908152602001604051809103902060009054906101000a900473ffffffffffffffffffffffffffffffffffffffff166040516020016200117291906200256d565b6040516020818303038152906040528051906020012014620011cb576040517f08c379a0000000000000000000000000000000000000000000000000000000008152600401620011c29062002704565b60405180910390fd5b6200120c6040518060400160405280600c81526020017f416d61706f6c616161613a20000000000000000000000000000000000000000081525033620019b0565b33816040516200121c9062001a79565b62001229929190620025d9565b604051809103906000f08015801562001246573d6000803e3d6000fd5b506000826040516200125991906200258a565b908152602001604051809103902060006101000a81548173ffffffffffffffffffffffffffffffffffffffff021916908373ffffffffffffffffffffffffffffffffffffffff160217905550600281908060018154018082558091505060019003906000526020600020016000909190919091509080519060200190620012e292919062001a87565b5050565b600080604051602001620012fb919062002550565b604051602081830303815290604052805190602001206000836040516200132391906200258a565b908152602001604051809103902060009054906101000a900473ffffffffffffffffffffffffffffffffffffffff166040516020016200136491906200256d565b604051602081830303815290604052805190602001201415620013be576040517f08c379a0000000000000000000000000000000000000000000000000000000008152600401620013b590620027ae565b60405180910390fd5b600082604051620013d091906200258a565b908152602001604051809103902060009054906101000a900473ffffffffffffffffffffffffffffffffffffffff169050919050565b6000806040516020016200141b919062002550565b604051602081830303815290604052805190602001206000836040516200144391906200258a565b908152602001604051809103902060009054906101000a900473ffffffffffffffffffffffffffffffffffffffff166040516020016200148491906200256d565b604051602081830303815290604052805190602001201415620014de576040517f08c379a0000000000000000000000000000000000000000000000000000000008152600401620014d590620027ae565b60405180910390fd5b600082604051620014f091906200258a565b908152602001604051809103902060009054906101000a900473ffffffffffffffffffffffffffffffffffffffff1673ffffffffffffffffffffffffffffffffffffffff16630dc960156040518163ffffffff1660e01b815260040160206040518083038186803b1580156200156557600080fd5b505afa1580156200157a573d6000803e3d6000fd5b505050506040513d601f19601f82011682018060405250810190620015a0919062001e5f565b9050919050565b6200164181604051602401620015be9190620026ac565b6040516020818303038152906040527f41304fac000000000000000000000000000000000000000000000000000000007bffffffffffffffffffffffffffffffffffffffffffffffffffffffff19166020820180517bffffffffffffffffffffffffffffffffffffffffffffffffffffffff838183161783525050505062001a50565b50565b600080600090505b60018054905081101562001848573373ffffffffffffffffffffffffffffffffffffffff16600182815481106200167f57fe5b906000526020600020906003020160000160009054906101000a900473ffffffffffffffffffffffffffffffffffffffff1673ffffffffffffffffffffffffffffffffffffffff1614156200183a5760005b60018281548110620016df57fe5b906000526020600020906003020160010180549050811015620017d457836040516020016200170f91906200258a565b60405160208183030381529060405280519060200120600183815481106200173357fe5b906000526020600020906003020160010182815481106200175057fe5b906000526020600020016040516020016200176c9190620025a3565b604051602081830303815290604052805190602001201415620017c6576040517f08c379a0000000000000000000000000000000000000000000000000000000008152600401620017bd906200278c565b60405180910390fd5b8080600101915050620016d1565b5060018181548110620017e357fe5b9060005260206000209060030201600101839080600181540180825580915050600190039060005260206000200160009091909190915090805190602001906200182f92919062001a87565b5080915050620019ab565b80806001019150506200164c565b506200185362001b0e565b33816000019073ffffffffffffffffffffffffffffffffffffffff16908173ffffffffffffffffffffffffffffffffffffffff1681525050600181908060018154018082558091505060019003906000526020600020906003020160009091909190915060008201518160000160006101000a81548173ffffffffffffffffffffffffffffffffffffffff021916908373ffffffffffffffffffffffffffffffffffffffff16021790555060208201518160010190805190602001906200191c92919062001b45565b5060408201518160020190805190602001906200193b92919062001bac565b505050600180808054905003815481106200195257fe5b9060005260206000209060030201600101839080600181540180825580915050600190039060005260206000200160009091909190915090805190602001906200199e92919062001a87565b5060018080549050039150505b919050565b62001a4c8282604051602401620019c9929190620026d0565b6040516020818303038152906040527f319af333000000000000000000000000000000000000000000000000000000007bffffffffffffffffffffffffffffffffffffffffffffffffffffffff19166020820180517bffffffffffffffffffffffffffffffffffffffffffffffffffffffff838183161783525050505062001a50565b5050565b60008151905060006a636f6e736f6c652e6c6f679050602083016000808483855afa5050505050565b6105fa8062002b1f83390190565b828054600181600116156101000203166002900490600052602060002090601f016020900481019282601f1062001aca57805160ff191683800117855562001afb565b8280016001018555821562001afb579182015b8281111562001afa57825182559160200191906001019062001add565b5b50905062001b0a919062001bfe565b5090565b6040518060600160405280600073ffffffffffffffffffffffffffffffffffffffff16815260200160608152602001606081525090565b82805482825590600052602060002090810192821562001b99579160200282015b8281111562001b9857825182908051906020019062001b8792919062001a87565b509160200191906001019062001b66565b5b50905062001ba8919062001c1d565b5090565b82805482825590600052602060002090810192821562001beb579160200282015b8281111562001bea57825182559160200191906001019062001bcd565b5b50905062001bfa919062001c45565b5090565b5b8082111562001c1957600081600090555060010162001bff565b5090565b5b8082111562001c41576000818162001c37919062001c64565b5060010162001c1e565b5090565b5b8082111562001c6057600081600090555060010162001c46565b5090565b50805460018160011615610100020316600290046000825580601f1062001c8c575062001cad565b601f01602090049060005260206000209081019062001cac919062001bfe565b5b50565b60008151905062001cc18162002ab6565b92915050565b60008135905062001cd88162002ad0565b92915050565b60008151905062001cef8162002aea565b92915050565b600082601f83011262001d0757600080fd5b813562001d1e62001d188262002821565b620027ed565b9150808252602083016020830185838301111562001d3b57600080fd5b62001d4883828462002a29565b50505092915050565b60008151905062001d628162002b04565b92915050565b60006020828403121562001d7b57600080fd5b600062001d8b8482850162001cb0565b91505092915050565b60006020828403121562001da757600080fd5b600062001db78482850162001cde565b91505092915050565b60006020828403121562001dd357600080fd5b600082013567ffffffffffffffff81111562001dee57600080fd5b62001dfc8482850162001cf5565b91505092915050565b6000806040838503121562001e1957600080fd5b600083013567ffffffffffffffff81111562001e3457600080fd5b62001e428582860162001cf5565b925050602062001e558582860162001cc7565b9150509250929050565b60006020828403121562001e7257600080fd5b600062001e828482850162001d51565b91505092915050565b600062001e99838362002149565b60208301905092915050565b600062001eb383836200216b565b905092915050565b600062001ec98383620024e2565b905092915050565b62001edc81620029c5565b82525050565b62001ef762001ef18262002971565b62002a6e565b82525050565b62001f08816200295d565b82525050565b62001f19816200295d565b82525050565b600062001f2c8262002899565b62001f388185620028ec565b935062001f458362002854565b8060005b8381101562001f7c57815162001f60888262001e8b565b975062001f6d83620028c5565b92505060018101905062001f49565b5085935050505092915050565b600062001f9682620028a4565b62001fa28185620028fd565b93508360208202850162001fb68562002864565b8060005b8581101562001ff8578484038952815162001fd6858262001ea5565b945062001fe383620028d2565b925060208a0199505060018101905062001fba565b50829750879550505050505092915050565b60006200201782620028a4565b6200202381856200290e565b935083602082028501620020378562002864565b8060005b8581101562002079578484038952815162002057858262001ea5565b94506200206483620028d2565b925060208a019950506001810190506200203b565b50829750879550505050505092915050565b60006200209882620028af565b620020a481856200291f565b935083602082028501620020b88562002874565b8060005b85811015620020fa5784840389528151620020d8858262001ebb565b9450620020e583620028df565b925060208a01995050600181019050620020bc565b50829750879550505050505092915050565b620021178162002985565b82525050565b6200212881620029d9565b82525050565b620021436200213d82620029d9565b62002a6e565b82525050565b620021548162002991565b82525050565b620021658162002991565b82525050565b60006200217882620028ba565b62002184818562002930565b93506200219681856020860162002a38565b620021a18162002a98565b840191505092915050565b6000620021b982620028ba565b620021c5818562002941565b9350620021d781856020860162002a38565b620021e28162002a98565b840191505092915050565b6000620021fa82620028ba565b62002206818562002952565b93506200221881856020860162002a38565b80840191505092915050565b6000815460018116600081146200224457600181146200226c57620022b6565b607f600283041662002257818762002952565b955060ff1983168652808601935050620022b6565b600282046200227c818762002952565b9550620022898562002884565b60005b82811015620022ad578154818901526001820191506020810190506200228c565b82880195505050505b505092915050565b6000620022cd60218362002941565b91507f5468652055524c20616c72656164792065786973747320696e206f757220646260008301527f2e000000000000000000000000000000000000000000000000000000000000006020830152604082019050919050565b60006200233560328362002941565b91507f596f752061726520746865206f776e6572206f66207468697320646f6d61696e60008301527f2c20796f752063616e206e6f7420766f746500000000000000000000000000006020830152604082019050919050565b60006200239d60148362002941565b91507f4661696c656420746f2073656e642045746865720000000000000000000000006000830152602082019050919050565b6000620023df60248362002941565b91507f596f7520617265206e6f7420746865206f776e6572206f66207468697320646f60008301527f6d61696e000000000000000000000000000000000000000000000000000000006020830152604082019050919050565b600062002447601f8362002941565b91507f596f75206861766520616c726561647920766f74656420746869732055524c006000830152602082019050919050565b60006200248960258362002941565b91507f54686520446f6d61696e20646f6573206e6f742065786973747320696e206f7560008301527f722064622e0000000000000000000000000000000000000000000000000000006020830152604082019050919050565b6000606083016000830151620024fc600086018262001efd565b506020830151848203602086015262002516828262001f89565b9150506040830151848203604086015262002532828262001f1f565b9150508091505092915050565b6200254a81620029bb565b82525050565b60006200255e828462001ee2565b60148201915081905092915050565b60006200257b82846200212e565b60148201915081905092915050565b6000620025988284620021ed565b915081905092915050565b6000620025b1828462002224565b915081905092915050565b6000602082019050620025d3600083018462001f0e565b92915050565b6000604082019050620025f0600083018562001ed1565b8181036020830152620026048184620021ac565b90509392505050565b600060208201905081810360008301526200262981846200200a565b905092915050565b600060208201905081810360008301526200264d81846200208b565b905092915050565b60006020820190506200266c60008301846200210c565b92915050565b60006020820190506200268960008301846200211d565b92915050565b6000602082019050620026a660008301846200215a565b92915050565b60006020820190508181036000830152620026c88184620021ac565b905092915050565b60006040820190508181036000830152620026ec8185620021ac565b9050620026fd602083018462001f0e565b9392505050565b600060208201905081810360008301526200271f81620022be565b9050919050565b60006020820190508181036000830152620027418162002326565b9050919050565b6000602082019050818103600083015262002763816200238e565b9050919050565b600060208201905081810360008301526200278581620023d0565b9050919050565b60006020820190508181036000830152620027a78162002438565b9050919050565b60006020820190508181036000830152620027c9816200247a565b9050919050565b6000602082019050620027e760008301846200253f565b92915050565b6000604051905081810181811067ffffffffffffffff8211171562002817576200281662002a96565b5b8060405250919050565b600067ffffffffffffffff8211156200283f576200283e62002a96565b5b601f19601f8301169050602081019050919050565b6000819050602082019050919050565b6000819050602082019050919050565b6000819050602082019050919050565b60008190508160005260206000209050919050565b600081519050919050565b600081519050919050565b600081519050919050565b600081519050919050565b6000602082019050919050565b6000602082019050919050565b6000602082019050919050565b600082825260208201905092915050565b600082825260208201905092915050565b600082825260208201905092915050565b600082825260208201905092915050565b600082825260208201905092915050565b600082825260208201905092915050565b600081905092915050565b60006200296a826200299b565b9050919050565b60006200297e826200299b565b9050919050565b60008115159050919050565b6000819050919050565b600073ffffffffffffffffffffffffffffffffffffffff82169050919050565b6000819050919050565b6000620029d28262002a01565b9050919050565b6000620029e682620029ed565b9050919050565b6000620029fa826200299b565b9050919050565b600062002a0e8262002a15565b9050919050565b600062002a22826200299b565b9050919050565b82818337600083830152505050565b60005b8381101562002a5857808201518184015260208101905062002a3b565b8381111562002a68576000848401525b50505050565b600062002a7b8262002a82565b9050919050565b600062002a8f8262002aa9565b9050919050565bfe5b6000601f19601f8301169050919050565b60008160601b9050919050565b62002ac1816200295d565b811462002acd57600080fd5b50565b62002adb8162002985565b811462002ae757600080fd5b50565b62002af58162002991565b811462002b0157600080fd5b50565b62002b0f81620029bb565b811462002b1b57600080fd5b5056fe608060405234801561001057600080fd5b506040516105fa3803806105fa833981810160405281019061003291906101a6565b816000806101000a81548173ffffffffffffffffffffffffffffffffffffffff021916908373ffffffffffffffffffffffffffffffffffffffff16021790555080600190805190602001906100889291906100a0565b506000600281905550600060038190555050506102d9565b828054600181600116156101000203166002900490600052602060002090601f016020900481019282601f106100e157805160ff191683800117855561010f565b8280016001018555821561010f579182015b8281111561010e5782518255916020019190600101906100f3565b5b50905061011c9190610120565b5090565b5b80821115610139576000816000905550600101610121565b5090565b60008151905061014c816102c2565b92915050565b600082601f83011261016357600080fd5b81516101766101718261022b565b6101fa565b9150808252602083016020830185838301111561019257600080fd5b61019d83828461028d565b50505092915050565b600080604083850312156101b957600080fd5b60006101c78582860161013d565b925050602083015167ffffffffffffffff8111156101e457600080fd5b6101f085828601610152565b9150509250929050565b6000604051905081810181811067ffffffffffffffff82111715610221576102206102c0565b5b8060405250919050565b600067ffffffffffffffff821115610246576102456102c0565b5b601f19601f8301169050602081019050919050565b60006102668261026d565b9050919050565b600073ffffffffffffffffffffffffffffffffffffffff82169050919050565b60005b838110156102ab578082015181840152602081019050610290565b838111156102ba576000848401525b50505050565bfe5b6102cb8161025b565b81146102d657600080fd5b50565b610312806102e86000396000f3fe60806040526004361061004e5760003560e01c80630dc960151461005757806312065fe0146100825780634b9f5c98146100ad578063893d20e8146100d6578063ffe6a18e1461010157610055565b3661005557005b005b34801561006357600080fd5b5061006c61012c565b6040516100799190610258565b60405180910390f35b34801561008e57600080fd5b50610097610136565b6040516100a49190610258565b60405180910390f35b3480156100b957600080fd5b506100d460048036038101906100cf91906101cc565b61013e565b005b3480156100e257600080fd5b506100eb610184565b6040516100f89190610222565b60405180910390f35b34801561010d57600080fd5b506101166101ad565b604051610123919061023d565b60405180910390f35b6000600354905090565b600047905090565b600360008154809291906001019190505550801561016d57600260008154809291906001019190505550610181565b600260008154809291906001900391905055505b50565b60008060009054906101000a900473ffffffffffffffffffffffffffffffffffffffff16905090565b6000600254905090565b6000813590506101c6816102c5565b92915050565b6000602082840312156101de57600080fd5b60006101ec848285016101b7565b91505092915050565b6101fe81610273565b82525050565b61020d81610291565b82525050565b61021c816102bb565b82525050565b600060208201905061023760008301846101f5565b92915050565b60006020820190506102526000830184610204565b92915050565b600060208201905061026d6000830184610213565b92915050565b600061027e8261029b565b9050919050565b60008115159050919050565b6000819050919050565b600073ffffffffffffffffffffffffffffffffffffffff82169050919050565b6000819050919050565b6102ce81610285565b81146102d957600080fd5b5056fea26469706673582212200152c631044a16dbb03eff57ded0c4238434b71f31bc0520f255bc4a4ee6f90364736f6c63430007030033a2646970667358221220e5c78fdc238eb5af3e16b2bf58eb1c2714d6f5bfd6a44da613700e5cb7568f0064736f6c6343000703003357656c636f6d6520746f2055524c2072657075746174696f6e2073797374656d206d6f64656c202332",
  "linkReferences": {},
  "deployedLinkReferences": {}
}