{
  "_format": "hh-sol-artifact-1",
  "contractName": "Domain",
  "sourceName": "contracts/model2.sol",
  "abi": [
    {
      "inputs": [
        {
          "internalType": "address",
          "name": "_owner",
          "type": "address"
        },
        {
          "internalType": "string",
          "name": "_domain",
          "type": "string"
        }
      ],
      "stateMutability": "nonpayable",
      "type": "constructor"
    },
    {
      "stateMutability": "payable",
      "type": "fallback"
    },
    {
      "inputs": [],
      "name": "getBalance",
      "outputs": [
        {
          "internalType": "uint256",
          "name": "",
          "type": "uint256"
        }
      ],
      "stateMutability": "view",
      "type": "function"
    },
    {
      "inputs": [],
      "name": "getOwner",
      "outputs": [
        {
          "internalType": "address",
          "name": "",
          "type": "address"
        }
      ],
      "stateMutability": "view",
      "type": "function"
    },
    {
      "inputs": [],
      "name": "getReputation",
      "outputs": [
        {
          "internalType": "int256",
          "name": "",
          "type": "int256"
        }
      ],
      "stateMutability": "view",
      "type": "function"
    },
    {
      "inputs": [],
      "name": "getVotes",
      "outputs": [
        {
          "internalType": "uint256",
          "name": "",
          "type": "uint256"
        }
      ],
      "stateMutability": "view",
      "type": "function"
    },
    {
      "inputs": [
        {
          "internalType": "bool",
          "name": "_vote",
          "type": "bool"
        },
        {
          "internalType": "uint256",
          "name": "_initGas",
          "type": "uint256"
        },
        {
          "internalType": "address payable",
          "name": "_address",
          "type": "address"
        }
      ],
      "name": "vote",
      "outputs": [],
      "stateMutability": "nonpayable",
      "type": "function"
    },
    {
      "stateMutability": "payable",
      "type": "receive"
    }
  ],
  "bytecode": "0x608060405234801561001057600080fd5b5060405161079b38038061079b833981810160405281019061003291906101a6565b816000806101000a81548173ffffffffffffffffffffffffffffffffffffffff021916908373ffffffffffffffffffffffffffffffffffffffff16021790555080600190805190602001906100889291906100a0565b506000600281905550600060038190555050506102d9565b828054600181600116156101000203166002900490600052602060002090601f016020900481019282601f106100e157805160ff191683800117855561010f565b8280016001018555821561010f579182015b8281111561010e5782518255916020019190600101906100f3565b5b50905061011c9190610120565b5090565b5b80821115610139576000816000905550600101610121565b5090565b60008151905061014c816102c2565b92915050565b600082601f83011261016357600080fd5b81516101766101718261022b565b6101fa565b9150808252602083016020830185838301111561019257600080fd5b61019d83828461028d565b50505092915050565b600080604083850312156101b957600080fd5b60006101c78582860161013d565b925050602083015167ffffffffffffffff8111156101e457600080fd5b6101f085828601610152565b9150509250929050565b6000604051905081810181811067ffffffffffffffff82111715610221576102206102c0565b5b8060405250919050565b600067ffffffffffffffff821115610246576102456102c0565b5b601f19601f8301169050602081019050919050565b60006102668261026d565b9050919050565b600073ffffffffffffffffffffffffffffffffffffffff82169050919050565b60005b838110156102ab578082015181840152602081019050610290565b838111156102ba576000848401525b50505050565bfe5b6102cb8161025b565b81146102d657600080fd5b50565b6104b3806102e86000396000f3fe60806040526004361061004e5760003560e01c80630dc960151461005757806312065fe01461008257806361ebccfd146100ad578063893d20e8146100d6578063ffe6a18e1461010157610055565b3661005557005b005b34801561006357600080fd5b5061006c61012c565b60405161007991906103a8565b60405180910390f35b34801561008e57600080fd5b50610097610136565b6040516100a491906103a8565b60405180910390f35b3480156100b957600080fd5b506100d460048036038101906100cf9190610296565b61013e565b005b3480156100e257600080fd5b506100eb610224565b6040516100f89190610352565b60405180910390f35b34801561010d57600080fd5b5061011661024d565b604051610123919061036d565b60405180910390f35b6000600354905090565b600047905090565b600360008154809291906001019190505550821561016d57600260008154809291906001019190505550610181565b600260008154809291906001900391905055505b60006202fbba60165a8503020190506202fbba810147116101d7576040517f08c379a00000000000000000000000000000000000000000000000000000000081526004016101ce90610388565b60405180910390fd5b8173ffffffffffffffffffffffffffffffffffffffff166108fc829081150290604051600060405180830381858888f1935050505015801561021d573d6000803e3d6000fd5b5050505050565b60008060009054906101000a900473ffffffffffffffffffffffffffffffffffffffff16905090565b6000600254905090565b60008135905061026681610438565b92915050565b60008135905061027b8161044f565b92915050565b60008135905061029081610466565b92915050565b6000806000606084860312156102ab57600080fd5b60006102b98682870161026c565b93505060206102ca86828701610281565b92505060406102db86828701610257565b9150509250925092565b6102ee816103d4565b82525050565b6102fd81610404565b82525050565b60006103106012836103c3565b91507f4e6f742062616c616e636520656e6f75676800000000000000000000000000006000830152602082019050919050565b61034c8161042e565b82525050565b600060208201905061036760008301846102e5565b92915050565b600060208201905061038260008301846102f4565b92915050565b600060208201905081810360008301526103a181610303565b9050919050565b60006020820190506103bd6000830184610343565b92915050565b600082825260208201905092915050565b60006103df8261040e565b9050919050565b60006103f18261040e565b9050919050565b60008115159050919050565b6000819050919050565b600073ffffffffffffffffffffffffffffffffffffffff82169050919050565b6000819050919050565b610441816103e6565b811461044c57600080fd5b50565b610458816103f8565b811461046357600080fd5b50565b61046f8161042e565b811461047a57600080fd5b5056fea2646970667358221220ad5af121ca4fd33e91ca2df98301a9dd6c0110d6975e7d7d858a0d5f75fbfb2864736f6c63430007030033",
  "linkReferences": {},
  "deployedLinkReferences": {}
}