{
  "_format": "hh-sol-artifact-1",
  "contractName": "DomainManager",
  "sourceName": "contracts/model2.sol",
  "abi": [
    {
      "inputs": [],
      "stateMutability": "nonpayable",
      "type": "constructor"
    },
    {
      "inputs": [
        {
          "internalType": "string",
          "name": "_domain",
          "type": "string"
        }
      ],
      "name": "createDomain",
      "outputs": [],
      "stateMutability": "nonpayable",
      "type": "function"
    },
    {
      "inputs": [
        {
          "internalType": "string",
          "name": "_domain",
          "type": "string"
        }
      ],
      "name": "getDomain",
      "outputs": [
        {
          "internalType": "contract Domain",
          "name": "",
          "type": "address"
        }
      ],
      "stateMutability": "view",
      "type": "function"
    },
    {
      "inputs": [
        {
          "internalType": "string",
          "name": "_domain",
          "type": "string"
        }
      ],
      "name": "getDomainBalance",
      "outputs": [
        {
          "internalType": "uint256",
          "name": "",
          "type": "uint256"
        }
      ],
      "stateMutability": "view",
      "type": "function"
    },
    {
      "inputs": [],
      "name": "getDomainList",
      "outputs": [
        {
          "internalType": "string[]",
          "name": "",
          "type": "string[]"
        }
      ],
      "stateMutability": "view",
      "type": "function"
    },
    {
      "inputs": [
        {
          "internalType": "string",
          "name": "_domain",
          "type": "string"
        }
      ],
      "name": "getDomainOwner",
      "outputs": [
        {
          "internalType": "address",
          "name": "",
          "type": "address"
        }
      ],
      "stateMutability": "view",
      "type": "function"
    },
    {
      "inputs": [
        {
          "internalType": "string",
          "name": "_domain",
          "type": "string"
        }
      ],
      "name": "getDomainParticipation",
      "outputs": [
        {
          "internalType": "uint256",
          "name": "",
          "type": "uint256"
        }
      ],
      "stateMutability": "view",
      "type": "function"
    },
    {
      "inputs": [
        {
          "internalType": "string",
          "name": "_domain",
          "type": "string"
        }
      ],
      "name": "getDomainReputation",
      "outputs": [
        {
          "internalType": "int256",
          "name": "",
          "type": "int256"
        }
      ],
      "stateMutability": "view",
      "type": "function"
    },
    {
      "inputs": [],
      "name": "getVotersList",
      "outputs": [
        {
          "components": [
            {
              "internalType": "address",
              "name": "addr",
              "type": "address"
            },
            {
              "internalType": "string[]",
              "name": "urlsVoted",
              "type": "string[]"
            },
            {
              "internalType": "int256[]",
              "name": "votes",
              "type": "int256[]"
            }
          ],
          "internalType": "struct DomainManager.Voter[]",
          "name": "",
          "type": "tuple[]"
        }
      ],
      "stateMutability": "view",
      "type": "function"
    },
    {
      "inputs": [
        {
          "internalType": "string",
          "name": "_domain",
          "type": "string"
        }
      ],
      "name": "sendMoney",
      "outputs": [],
      "stateMutability": "payable",
      "type": "function"
    },
    {
      "inputs": [
        {
          "internalType": "string",
          "name": "_domain",
          "type": "string"
        },
        {
          "internalType": "bool",
          "name": "_vote",
          "type": "bool"
        }
      ],
      "name": "vote",
      "outputs": [],
      "stateMutability": "nonpayable",
      "type": "function"
    }
  ],
  "bytecode": "0x60806040523480156200001157600080fd5b506200004160405180606001604052806029815260200162003419602991396200004760201b620015891760201c565b620001db565b620000e7816040516024016200005e919062000154565b6040516020818303038152906040527f41304fac000000000000000000000000000000000000000000000000000000007bffffffffffffffffffffffffffffffffffffffffffffffffffffffff19166020820180517bffffffffffffffffffffffffffffffffffffffffffffffffffffffff8381831617835250505050620000ea60201b60201c565b50565b60008151905060006a636f6e736f6c652e6c6f679050602083016000808483855afa5050505050565b6000620001208262000178565b6200012c818562000183565b93506200013e81856020860162000194565b6200014981620001ca565b840191505092915050565b6000602082019050818103600083015262000170818462000113565b905092915050565b600081519050919050565b600082825260208201905092915050565b60005b83811015620001b457808201518184015260208101905062000197565b83811115620001c4576000848401525b50505050565b6000601f19601f8301169050919050565b61322e80620001eb6000396000f3fe6080604052600436106200009e5760003560e01c8063bc86f3851162000061578063bc86f38514620001a9578063bcef0f5a14620001d9578063de2309a2146200021d578063ecdd04da146200024b578063f8b26d8f146200028f576200009e565b8063050dbadf14620000a3578063201f711814620000c35780632597011514620000f357806327d3410c14620001375780639724f9331462000165575b600080fd5b620000c16004803603810190620000bb919062001d02565b620002d3565b005b348015620000d057600080fd5b50620000db6200059f565b604051620000ea919062002560565b60405180910390f35b3480156200010057600080fd5b506200011f600480360381019062000119919062001d02565b6200068e565b6040516200012e91906200250f565b60405180910390f35b3480156200014457600080fd5b506200016360048036038101906200015d919062001d47565b62000832565b005b3480156200017257600080fd5b506200019160048036038101906200018b919062001d02565b62000bc8565b604051620001a0919062002602565b60405180910390f35b348015620001b657600080fd5b50620001c162000d6c565b604051620001d0919062002584565b60405180910390f35b348015620001e657600080fd5b50620002056004803603810190620001ff919062001d02565b62000f6c565b6040516200021491906200270f565b60405180910390f35b3480156200022a57600080fd5b5062000249600480360381019062000243919062001d02565b62001110565b005b3480156200025857600080fd5b5062000277600480360381019062000271919062001d02565b620012c2565b604051620002869190620025e5565b60405180910390f35b3480156200029c57600080fd5b50620002bb6004803603810190620002b5919062001d02565b620013e5565b604051620002ca91906200270f565b60405180910390f35b806000604051602001620002e89190620024a3565b60405160208183030381529060405280519060200120600082604051620003109190620024dd565b908152602001604051809103902060009054906101000a900473ffffffffffffffffffffffffffffffffffffffff16604051602001620003519190620024c0565b604051602081830303815290604052805190602001201415620003ab576040517f08c379a0000000000000000000000000000000000000000000000000000000008152600401620003a290620026ed565b60405180910390fd5b813373ffffffffffffffffffffffffffffffffffffffff16600082604051620003d59190620024dd565b908152602001604051809103902060009054906101000a900473ffffffffffffffffffffffffffffffffffffffff1673ffffffffffffffffffffffffffffffffffffffff1663893d20e86040518163ffffffff1660e01b815260040160206040518083038186803b1580156200044a57600080fd5b505afa1580156200045f573d6000803e3d6000fd5b505050506040513d601f19601f8201168201806040525081019062000485919062001caa565b73ffffffffffffffffffffffffffffffffffffffff1614620004de576040517f08c379a0000000000000000000000000000000000000000000000000000000008152600401620004d590620026a9565b60405180910390fd5b60008084604051620004f19190620024dd565b908152602001604051809103902060009054906101000a900473ffffffffffffffffffffffffffffffffffffffff1673ffffffffffffffffffffffffffffffffffffffff166108fc349081150290604051600060405180830381858888f1935050505090508062000599576040517f08c379a0000000000000000000000000000000000000000000000000000000008152600401620005909062002687565b60405180910390fd5b50505050565b60606002805480602002602001604051908101604052809291908181526020016000905b8282101562000685578382906000526020600020018054600181600116156101000203166002900480601f016020809104026020016040519081016040528092919081815260200182805460018160011615610100020316600290048015620006705780601f10620006445761010080835404028352916020019162000670565b820191906000526020600020905b8154815290600101906020018083116200065257829003601f168201915b505050505081526020019060010190620005c3565b50505050905090565b6000816000604051602001620006a59190620024a3565b60405160208183030381529060405280519060200120600082604051620006cd9190620024dd565b908152602001604051809103902060009054906101000a900473ffffffffffffffffffffffffffffffffffffffff166040516020016200070e9190620024c0565b60405160208183030381529060405280519060200120141562000768576040517f08c379a00000000000000000000000000000000000000000000000000000000081526004016200075f90620026ed565b60405180910390fd5b6000836040516200077a9190620024dd565b908152602001604051809103902060009054906101000a900473ffffffffffffffffffffffffffffffffffffffff1673ffffffffffffffffffffffffffffffffffffffff1663893d20e86040518163ffffffff1660e01b815260040160206040518083038186803b158015620007ef57600080fd5b505afa15801562000804573d6000803e3d6000fd5b505050506040513d601f19601f820116820180604052508101906200082a919062001caa565b915050919050565b816000604051602001620008479190620024a3565b604051602081830303815290604052805190602001206000826040516200086f9190620024dd565b908152602001604051809103902060009054906101000a900473ffffffffffffffffffffffffffffffffffffffff16604051602001620008b09190620024c0565b6040516020818303038152906040528051906020012014156200090a576040517f08c379a00000000000000000000000000000000000000000000000000000000081526004016200090190620026ed565b60405180910390fd5b823373ffffffffffffffffffffffffffffffffffffffff16600082604051620009349190620024dd565b908152602001604051809103902060009054906101000a900473ffffffffffffffffffffffffffffffffffffffff1673ffffffffffffffffffffffffffffffffffffffff1663893d20e86040518163ffffffff1660e01b815260040160206040518083038186803b158015620009a957600080fd5b505afa158015620009be573d6000803e3d6000fd5b505050506040513d601f19601f82011682018060405250810190620009e4919062001caa565b73ffffffffffffffffffffffffffffffffffffffff16141562000a3e576040517f08c379a000000000000000000000000000000000000000000000000000000000815260040162000a359062002665565b60405180910390fd5b60005a9050600062000a508662001626565b9050841562000aa6576001818154811062000a6757fe5b90600052602060002090600302016002016001908060018154018082558091505060019003906000526020600020016000909190919091505562000b0d565b6001818154811062000ab457fe5b90600052602060002090600302016002017fffffffffffffffffffffffffffffffffffffffffffffffffffffffffffffffff90806001815401808255809150506001900390600052602060002001600090919091909150555b60008660405162000b1f9190620024dd565b908152602001604051809103902060009054906101000a900473ffffffffffffffffffffffffffffffffffffffff1673ffffffffffffffffffffffffffffffffffffffff166361ebccfd8684336040518463ffffffff1660e01b815260040162000b8c93929190620025a8565b600060405180830381600087803b15801562000ba757600080fd5b505af115801562000bbc573d6000803e3d6000fd5b50505050505050505050565b600081600060405160200162000bdf9190620024a3565b6040516020818303038152906040528051906020012060008260405162000c079190620024dd565b908152602001604051809103902060009054906101000a900473ffffffffffffffffffffffffffffffffffffffff1660405160200162000c489190620024c0565b60405160208183030381529060405280519060200120141562000ca2576040517f08c379a000000000000000000000000000000000000000000000000000000000815260040162000c9990620026ed565b60405180910390fd5b60008360405162000cb49190620024dd565b908152602001604051809103902060009054906101000a900473ffffffffffffffffffffffffffffffffffffffff1673ffffffffffffffffffffffffffffffffffffffff1663ffe6a18e6040518163ffffffff1660e01b815260040160206040518083038186803b15801562000d2957600080fd5b505afa15801562000d3e573d6000803e3d6000fd5b505050506040513d601f19601f8201168201806040525081019062000d64919062001cd6565b915050919050565b60606001805480602002602001604051908101604052809291908181526020016000905b8282101562000f6357838290600052602060002090600302016040518060600160405290816000820160009054906101000a900473ffffffffffffffffffffffffffffffffffffffff1673ffffffffffffffffffffffffffffffffffffffff1673ffffffffffffffffffffffffffffffffffffffff16815260200160018201805480602002602001604051908101604052809291908181526020016000905b8282101562000ef1578382906000526020600020018054600181600116156101000203166002900480601f01602080910402602001604051908101604052809291908181526020018280546001816001161561010002031660029004801562000edc5780601f1062000eb05761010080835404028352916020019162000edc565b820191906000526020600020905b81548152906001019060200180831162000ebe57829003601f168201915b50505050508152602001906001019062000e2f565b5050505081526020016002820180548060200260200160405190810160405280929190818152602001828054801562000f4a57602002820191906000526020600020905b81548152602001906001019080831162000f35575b5050505050815250508152602001906001019062000d90565b50505050905090565b600081600060405160200162000f839190620024a3565b6040516020818303038152906040528051906020012060008260405162000fab9190620024dd565b908152602001604051809103902060009054906101000a900473ffffffffffffffffffffffffffffffffffffffff1660405160200162000fec9190620024c0565b60405160208183030381529060405280519060200120141562001046576040517f08c379a00000000000000000000000000000000000000000000000000000000081526004016200103d90620026ed565b60405180910390fd5b600083604051620010589190620024dd565b908152602001604051809103902060009054906101000a900473ffffffffffffffffffffffffffffffffffffffff1673ffffffffffffffffffffffffffffffffffffffff166312065fe06040518163ffffffff1660e01b815260040160206040518083038186803b158015620010cd57600080fd5b505afa158015620010e2573d6000803e3d6000fd5b505050506040513d601f19601f8201168201806040525081019062001108919062001da1565b915050919050565b806000604051602001620011259190620024a3565b604051602081830303815290604052805190602001206000826040516200114d9190620024dd565b908152602001604051809103902060009054906101000a900473ffffffffffffffffffffffffffffffffffffffff166040516020016200118e9190620024c0565b6040516020818303038152906040528051906020012014620011e7576040517f08c379a0000000000000000000000000000000000000000000000000000000008152600401620011de9062002643565b60405180910390fd5b3382604051620011f790620019bb565b620012049291906200252c565b604051809103906000f08015801562001221573d6000803e3d6000fd5b50600083604051620012349190620024dd565b908152602001604051809103902060006101000a81548173ffffffffffffffffffffffffffffffffffffffff021916908373ffffffffffffffffffffffffffffffffffffffff160217905550600282908060018154018082558091505060019003906000526020600020016000909190919091509080519060200190620012bd929190620019c9565b505050565b6000816000604051602001620012d99190620024a3565b60405160208183030381529060405280519060200120600082604051620013019190620024dd565b908152602001604051809103902060009054906101000a900473ffffffffffffffffffffffffffffffffffffffff16604051602001620013429190620024c0565b6040516020818303038152906040528051906020012014156200139c576040517f08c379a00000000000000000000000000000000000000000000000000000000081526004016200139390620026ed565b60405180910390fd5b600083604051620013ae9190620024dd565b908152602001604051809103902060009054906101000a900473ffffffffffffffffffffffffffffffffffffffff16915050919050565b6000816000604051602001620013fc9190620024a3565b60405160208183030381529060405280519060200120600082604051620014249190620024dd565b908152602001604051809103902060009054906101000a900473ffffffffffffffffffffffffffffffffffffffff16604051602001620014659190620024c0565b604051602081830303815290604052805190602001201415620014bf576040517f08c379a0000000000000000000000000000000000000000000000000000000008152600401620014b690620026ed565b60405180910390fd5b600083604051620014d19190620024dd565b908152602001604051809103902060009054906101000a900473ffffffffffffffffffffffffffffffffffffffff1673ffffffffffffffffffffffffffffffffffffffff16630dc960156040518163ffffffff1660e01b815260040160206040518083038186803b1580156200154657600080fd5b505afa1580156200155b573d6000803e3d6000fd5b505050506040513d601f19601f8201168201806040525081019062001581919062001da1565b915050919050565b6200162381604051602401620015a091906200261f565b6040516020818303038152906040527f41304fac000000000000000000000000000000000000000000000000000000007bffffffffffffffffffffffffffffffffffffffffffffffffffffffff19166020820180517bffffffffffffffffffffffffffffffffffffffffffffffffffffffff838183161783525050505062001992565b50565b600080600090505b6001805490508110156200182a573373ffffffffffffffffffffffffffffffffffffffff16600182815481106200166157fe5b906000526020600020906003020160000160009054906101000a900473ffffffffffffffffffffffffffffffffffffffff1673ffffffffffffffffffffffffffffffffffffffff1614156200181c5760005b60018281548110620016c157fe5b906000526020600020906003020160010180549050811015620017b65783604051602001620016f19190620024dd565b60405160208183030381529060405280519060200120600183815481106200171557fe5b906000526020600020906003020160010182815481106200173257fe5b906000526020600020016040516020016200174e9190620024f6565b604051602081830303815290604052805190602001201415620017a8576040517f08c379a00000000000000000000000000000000000000000000000000000000081526004016200179f90620026cb565b60405180910390fd5b8080600101915050620016b3565b5060018181548110620017c557fe5b90600052602060002090600302016001018390806001815401808255809150506001900390600052602060002001600090919091909150908051906020019062001811929190620019c9565b50809150506200198d565b80806001019150506200162e565b506200183562001a50565b33816000019073ffffffffffffffffffffffffffffffffffffffff16908173ffffffffffffffffffffffffffffffffffffffff1681525050600181908060018154018082558091505060019003906000526020600020906003020160009091909190915060008201518160000160006101000a81548173ffffffffffffffffffffffffffffffffffffffff021916908373ffffffffffffffffffffffffffffffffffffffff1602179055506020820151816001019080519060200190620018fe92919062001a87565b5060408201518160020190805190602001906200191d92919062001aee565b505050600180808054905003815481106200193457fe5b90600052602060002090600302016001018390806001815401808255809150506001900390600052602060002001600090919091909150908051906020019062001980929190620019c9565b5060018080549050039150505b919050565b60008151905060006a636f6e736f6c652e6c6f679050602083016000808483855afa5050505050565b61079b8062002a5e83390190565b828054600181600116156101000203166002900490600052602060002090601f016020900481019282601f1062001a0c57805160ff191683800117855562001a3d565b8280016001018555821562001a3d579182015b8281111562001a3c57825182559160200191906001019062001a1f565b5b50905062001a4c919062001b40565b5090565b6040518060600160405280600073ffffffffffffffffffffffffffffffffffffffff16815260200160608152602001606081525090565b82805482825590600052602060002090810192821562001adb579160200282015b8281111562001ada57825182908051906020019062001ac9929190620019c9565b509160200191906001019062001aa8565b5b50905062001aea919062001b5f565b5090565b82805482825590600052602060002090810192821562001b2d579160200282015b8281111562001b2c57825182559160200191906001019062001b0f565b5b50905062001b3c919062001b87565b5090565b5b8082111562001b5b57600081600090555060010162001b41565b5090565b5b8082111562001b83576000818162001b79919062001ba6565b5060010162001b60565b5090565b5b8082111562001ba257600081600090555060010162001b88565b5090565b50805460018160011615610100020316600290046000825580601f1062001bce575062001bef565b601f01602090049060005260206000209081019062001bee919062001b40565b5b50565b60008151905062001c0381620029f5565b92915050565b60008135905062001c1a8162002a0f565b92915050565b60008151905062001c318162002a29565b92915050565b600082601f83011262001c4957600080fd5b813562001c6062001c5a8262002760565b6200272c565b9150808252602083016020830185838301111562001c7d57600080fd5b62001c8a83828462002968565b50505092915050565b60008151905062001ca48162002a43565b92915050565b60006020828403121562001cbd57600080fd5b600062001ccd8482850162001bf2565b91505092915050565b60006020828403121562001ce957600080fd5b600062001cf98482850162001c20565b91505092915050565b60006020828403121562001d1557600080fd5b600082013567ffffffffffffffff81111562001d3057600080fd5b62001d3e8482850162001c37565b91505092915050565b6000806040838503121562001d5b57600080fd5b600083013567ffffffffffffffff81111562001d7657600080fd5b62001d848582860162001c37565b925050602062001d978582860162001c09565b9150509250929050565b60006020828403121562001db457600080fd5b600062001dc48482850162001c93565b91505092915050565b600062001ddb83836200209c565b60208301905092915050565b600062001df58383620020be565b905092915050565b600062001e0b838362002435565b905092915050565b62001e1e8162002904565b82525050565b62001e2f81620028b0565b82525050565b62001e4a62001e4482620028b0565b620029ad565b82525050565b62001e5b816200289c565b82525050565b62001e6c816200289c565b82525050565b600062001e7f82620027d8565b62001e8b81856200282b565b935062001e988362002793565b8060005b8381101562001ecf57815162001eb3888262001dcd565b975062001ec08362002804565b92505060018101905062001e9c565b5085935050505092915050565b600062001ee982620027e3565b62001ef581856200283c565b93508360208202850162001f0985620027a3565b8060005b8581101562001f4b578484038952815162001f29858262001de7565b945062001f368362002811565b925060208a0199505060018101905062001f0d565b50829750879550505050505092915050565b600062001f6a82620027e3565b62001f7681856200284d565b93508360208202850162001f8a85620027a3565b8060005b8581101562001fcc578484038952815162001faa858262001de7565b945062001fb78362002811565b925060208a0199505060018101905062001f8e565b50829750879550505050505092915050565b600062001feb82620027ee565b62001ff781856200285e565b9350836020820285016200200b85620027b3565b8060005b858110156200204d57848403895281516200202b858262001dfd565b945062002038836200281e565b925060208a019950506001810190506200200f565b50829750879550505050505092915050565b6200206a81620028c4565b82525050565b6200207b8162002918565b82525050565b62002096620020908262002918565b620029ad565b82525050565b620020a781620028d0565b82525050565b620020b881620028d0565b82525050565b6000620020cb82620027f9565b620020d781856200286f565b9350620020e981856020860162002977565b620020f481620029d7565b840191505092915050565b60006200210c82620027f9565b62002118818562002880565b93506200212a81856020860162002977565b6200213581620029d7565b840191505092915050565b60006200214d82620027f9565b62002159818562002891565b93506200216b81856020860162002977565b80840191505092915050565b600081546001811660008114620021975760018114620021bf5762002209565b607f6002830416620021aa818762002891565b955060ff198316865280860193505062002209565b60028204620021cf818762002891565b9550620021dc85620027c3565b60005b828110156200220057815481890152600182019150602081019050620021df565b82880195505050505b505092915050565b60006200222060218362002880565b91507f5468652055524c20616c72656164792065786973747320696e206f757220646260008301527f2e000000000000000000000000000000000000000000000000000000000000006020830152604082019050919050565b60006200228860328362002880565b91507f596f752061726520746865206f776e6572206f66207468697320646f6d61696e60008301527f2c20796f752063616e206e6f7420766f746500000000000000000000000000006020830152604082019050919050565b6000620022f060148362002880565b91507f4661696c656420746f2073656e642045746865720000000000000000000000006000830152602082019050919050565b60006200233260248362002880565b91507f596f7520617265206e6f7420746865206f776e6572206f66207468697320646f60008301527f6d61696e000000000000000000000000000000000000000000000000000000006020830152604082019050919050565b60006200239a601f8362002880565b91507f596f75206861766520616c726561647920766f74656420746869732055524c006000830152602082019050919050565b6000620023dc60258362002880565b91507f54686520446f6d61696e20646f6573206e6f742065786973747320696e206f7560008301527f722064622e0000000000000000000000000000000000000000000000000000006020830152604082019050919050565b60006060830160008301516200244f600086018262001e50565b506020830151848203602086015262002469828262001edc565b9150506040830151848203604086015262002485828262001e72565b9150508091505092915050565b6200249d81620028fa565b82525050565b6000620024b1828462001e35565b60148201915081905092915050565b6000620024ce828462002081565b60148201915081905092915050565b6000620024eb828462002140565b915081905092915050565b600062002504828462002177565b915081905092915050565b600060208201905062002526600083018462001e61565b92915050565b600060408201905062002543600083018562001e13565b8181036020830152620025578184620020ff565b90509392505050565b600060208201905081810360008301526200257c818462001f5d565b905092915050565b60006020820190508181036000830152620025a0818462001fde565b905092915050565b6000606082019050620025bf60008301866200205f565b620025ce602083018562002492565b620025dd604083018462001e24565b949350505050565b6000602082019050620025fc600083018462002070565b92915050565b6000602082019050620026196000830184620020ad565b92915050565b600060208201905081810360008301526200263b8184620020ff565b905092915050565b600060208201905081810360008301526200265e8162002211565b9050919050565b60006020820190508181036000830152620026808162002279565b9050919050565b60006020820190508181036000830152620026a281620022e1565b9050919050565b60006020820190508181036000830152620026c48162002323565b9050919050565b60006020820190508181036000830152620026e6816200238b565b9050919050565b600060208201905081810360008301526200270881620023cd565b9050919050565b600060208201905062002726600083018462002492565b92915050565b6000604051905081810181811067ffffffffffffffff82111715620027565762002755620029d5565b5b8060405250919050565b600067ffffffffffffffff8211156200277e576200277d620029d5565b5b601f19601f8301169050602081019050919050565b6000819050602082019050919050565b6000819050602082019050919050565b6000819050602082019050919050565b60008190508160005260206000209050919050565b600081519050919050565b600081519050919050565b600081519050919050565b600081519050919050565b6000602082019050919050565b6000602082019050919050565b6000602082019050919050565b600082825260208201905092915050565b600082825260208201905092915050565b600082825260208201905092915050565b600082825260208201905092915050565b600082825260208201905092915050565b600082825260208201905092915050565b600081905092915050565b6000620028a982620028da565b9050919050565b6000620028bd82620028da565b9050919050565b60008115159050919050565b6000819050919050565b600073ffffffffffffffffffffffffffffffffffffffff82169050919050565b6000819050919050565b6000620029118262002940565b9050919050565b600062002925826200292c565b9050919050565b60006200293982620028da565b9050919050565b60006200294d8262002954565b9050919050565b60006200296182620028da565b9050919050565b82818337600083830152505050565b60005b83811015620029975780820151818401526020810190506200297a565b83811115620029a7576000848401525b50505050565b6000620029ba82620029c1565b9050919050565b6000620029ce82620029e8565b9050919050565bfe5b6000601f19601f8301169050919050565b60008160601b9050919050565b62002a00816200289c565b811462002a0c57600080fd5b50565b62002a1a81620028c4565b811462002a2657600080fd5b50565b62002a3481620028d0565b811462002a4057600080fd5b50565b62002a4e81620028fa565b811462002a5a57600080fd5b5056fe608060405234801561001057600080fd5b5060405161079b38038061079b833981810160405281019061003291906101a6565b816000806101000a81548173ffffffffffffffffffffffffffffffffffffffff021916908373ffffffffffffffffffffffffffffffffffffffff16021790555080600190805190602001906100889291906100a0565b506000600281905550600060038190555050506102d9565b828054600181600116156101000203166002900490600052602060002090601f016020900481019282601f106100e157805160ff191683800117855561010f565b8280016001018555821561010f579182015b8281111561010e5782518255916020019190600101906100f3565b5b50905061011c9190610120565b5090565b5b80821115610139576000816000905550600101610121565b5090565b60008151905061014c816102c2565b92915050565b600082601f83011261016357600080fd5b81516101766101718261022b565b6101fa565b9150808252602083016020830185838301111561019257600080fd5b61019d83828461028d565b50505092915050565b600080604083850312156101b957600080fd5b60006101c78582860161013d565b925050602083015167ffffffffffffffff8111156101e457600080fd5b6101f085828601610152565b9150509250929050565b6000604051905081810181811067ffffffffffffffff82111715610221576102206102c0565b5b8060405250919050565b600067ffffffffffffffff821115610246576102456102c0565b5b601f19601f8301169050602081019050919050565b60006102668261026d565b9050919050565b600073ffffffffffffffffffffffffffffffffffffffff82169050919050565b60005b838110156102ab578082015181840152602081019050610290565b838111156102ba576000848401525b50505050565bfe5b6102cb8161025b565b81146102d657600080fd5b50565b6104b3806102e86000396000f3fe60806040526004361061004e5760003560e01c80630dc960151461005757806312065fe01461008257806361ebccfd146100ad578063893d20e8146100d6578063ffe6a18e1461010157610055565b3661005557005b005b34801561006357600080fd5b5061006c61012c565b60405161007991906103a8565b60405180910390f35b34801561008e57600080fd5b50610097610136565b6040516100a491906103a8565b60405180910390f35b3480156100b957600080fd5b506100d460048036038101906100cf9190610296565b61013e565b005b3480156100e257600080fd5b506100eb610224565b6040516100f89190610352565b60405180910390f35b34801561010d57600080fd5b5061011661024d565b604051610123919061036d565b60405180910390f35b6000600354905090565b600047905090565b600360008154809291906001019190505550821561016d57600260008154809291906001019190505550610181565b600260008154809291906001900391905055505b60006202fbba60165a8503020190506202fbba810147116101d7576040517f08c379a00000000000000000000000000000000000000000000000000000000081526004016101ce90610388565b60405180910390fd5b8173ffffffffffffffffffffffffffffffffffffffff166108fc829081150290604051600060405180830381858888f1935050505015801561021d573d6000803e3d6000fd5b5050505050565b60008060009054906101000a900473ffffffffffffffffffffffffffffffffffffffff16905090565b6000600254905090565b60008135905061026681610438565b92915050565b60008135905061027b8161044f565b92915050565b60008135905061029081610466565b92915050565b6000806000606084860312156102ab57600080fd5b60006102b98682870161026c565b93505060206102ca86828701610281565b92505060406102db86828701610257565b9150509250925092565b6102ee816103d4565b82525050565b6102fd81610404565b82525050565b60006103106012836103c3565b91507f4e6f742062616c616e636520656e6f75676800000000000000000000000000006000830152602082019050919050565b61034c8161042e565b82525050565b600060208201905061036760008301846102e5565b92915050565b600060208201905061038260008301846102f4565b92915050565b600060208201905081810360008301526103a181610303565b9050919050565b60006020820190506103bd6000830184610343565b92915050565b600082825260208201905092915050565b60006103df8261040e565b9050919050565b60006103f18261040e565b9050919050565b60008115159050919050565b6000819050919050565b600073ffffffffffffffffffffffffffffffffffffffff82169050919050565b6000819050919050565b610441816103e6565b811461044c57600080fd5b50565b610458816103f8565b811461046357600080fd5b50565b61046f8161042e565b811461047a57600080fd5b5056fea2646970667358221220ad5af121ca4fd33e91ca2df98301a9dd6c0110d6975e7d7d858a0d5f75fbfb2864736f6c63430007030033a2646970667358221220113b02ab4b93bb7c4ae13f6dc81d458d4f4869b0c0ec38b2015ef755c341b60a64736f6c6343000703003357656c636f6d6520746f2055524c2072657075746174696f6e2073797374656d206d6f64656c202332",
  "linkReferences": {},
  "deployedLinkReferences": {}
}