{
  "_format": "hh-sol-artifact-1",
  "contractName": "Domain",
  "sourceName": "contracts/model2.sol",
  "abi": [
    {
      "inputs": [
        {
          "internalType": "address",
          "name": "_owner",
          "type": "address"
        },
        {
          "internalType": "string",
          "name": "_domain",
          "type": "string"
        }
      ],
      "stateMutability": "nonpayable",
      "type": "constructor"
    },
    {
      "stateMutability": "payable",
      "type": "fallback"
    },
    {
      "inputs": [],
      "name": "getBalance",
      "outputs": [
        {
          "internalType": "uint256",
          "name": "",
          "type": "uint256"
        }
      ],
      "stateMutability": "view",
      "type": "function"
    },
    {
      "inputs": [],
      "name": "getOwner",
      "outputs": [
        {
          "internalType": "address",
          "name": "",
          "type": "address"
        }
      ],
      "stateMutability": "view",
      "type": "function"
    },
    {
      "inputs": [],
      "name": "getReputation",
      "outputs": [
        {
          "internalType": "int256",
          "name": "",
          "type": "int256"
        }
      ],
      "stateMutability": "view",
      "type": "function"
    },
    {
      "inputs": [],
      "name": "getVotes",
      "outputs": [
        {
          "internalType": "uint256",
          "name": "",
          "type": "uint256"
        }
      ],
      "stateMutability": "view",
      "type": "function"
    },
    {
      "inputs": [
        {
          "internalType": "bool",
          "name": "_vote",
          "type": "bool"
        }
      ],
      "name": "vote",
      "outputs": [],
      "stateMutability": "nonpayable",
      "type": "function"
    },
    {
      "stateMutability": "payable",
      "type": "receive"
    }
  ],
  "bytecode": "0x608060405234801561001057600080fd5b506040516105fa3803806105fa833981810160405281019061003291906101a6565b816000806101000a81548173ffffffffffffffffffffffffffffffffffffffff021916908373ffffffffffffffffffffffffffffffffffffffff16021790555080600190805190602001906100889291906100a0565b506000600281905550600060038190555050506102d9565b828054600181600116156101000203166002900490600052602060002090601f016020900481019282601f106100e157805160ff191683800117855561010f565b8280016001018555821561010f579182015b8281111561010e5782518255916020019190600101906100f3565b5b50905061011c9190610120565b5090565b5b80821115610139576000816000905550600101610121565b5090565b60008151905061014c816102c2565b92915050565b600082601f83011261016357600080fd5b81516101766101718261022b565b6101fa565b9150808252602083016020830185838301111561019257600080fd5b61019d83828461028d565b50505092915050565b600080604083850312156101b957600080fd5b60006101c78582860161013d565b925050602083015167ffffffffffffffff8111156101e457600080fd5b6101f085828601610152565b9150509250929050565b6000604051905081810181811067ffffffffffffffff82111715610221576102206102c0565b5b8060405250919050565b600067ffffffffffffffff821115610246576102456102c0565b5b601f19601f8301169050602081019050919050565b60006102668261026d565b9050919050565b600073ffffffffffffffffffffffffffffffffffffffff82169050919050565b60005b838110156102ab578082015181840152602081019050610290565b838111156102ba576000848401525b50505050565bfe5b6102cb8161025b565b81146102d657600080fd5b50565b610312806102e86000396000f3fe60806040526004361061004e5760003560e01c80630dc960151461005757806312065fe0146100825780634b9f5c98146100ad578063893d20e8146100d6578063ffe6a18e1461010157610055565b3661005557005b005b34801561006357600080fd5b5061006c61012c565b6040516100799190610258565b60405180910390f35b34801561008e57600080fd5b50610097610136565b6040516100a49190610258565b60405180910390f35b3480156100b957600080fd5b506100d460048036038101906100cf91906101cc565b61013e565b005b3480156100e257600080fd5b506100eb610184565b6040516100f89190610222565b60405180910390f35b34801561010d57600080fd5b506101166101ad565b604051610123919061023d565b60405180910390f35b6000600354905090565b600047905090565b600360008154809291906001019190505550801561016d57600260008154809291906001019190505550610181565b600260008154809291906001900391905055505b50565b60008060009054906101000a900473ffffffffffffffffffffffffffffffffffffffff16905090565b6000600254905090565b6000813590506101c6816102c5565b92915050565b6000602082840312156101de57600080fd5b60006101ec848285016101b7565b91505092915050565b6101fe81610273565b82525050565b61020d81610291565b82525050565b61021c816102bb565b82525050565b600060208201905061023760008301846101f5565b92915050565b60006020820190506102526000830184610204565b92915050565b600060208201905061026d6000830184610213565b92915050565b600061027e8261029b565b9050919050565b60008115159050919050565b6000819050919050565b600073ffffffffffffffffffffffffffffffffffffffff82169050919050565b6000819050919050565b6102ce81610285565b81146102d957600080fd5b5056fea26469706673582212200152c631044a16dbb03eff57ded0c4238434b71f31bc0520f255bc4a4ee6f90364736f6c63430007030033",
  "linkReferences": {},
  "deployedLinkReferences": {}
}